:10036A00E4F522F523F524F52543A01043A0041251
:10037A000949E4F514F5151205D91209A3EF600627
:10038A001209A3EF7064E5154514705E53A0FB5380
:10039A00A0EFF522F5237DFA7C007F067EFF120787
:1003AA00FD0523E52370020522C3941AE522648021
:1003BA00948040E20515E515700205147D017C0064
:1003CA007F017E001207FD7FE87E0312092D7FE878
:1003DA007E0312092D7FE87E0312092D7FE87E0332
:1003EA0012092D7FE87E0312092D1209A3EF600678
:1003FA001209A3EF7081E5154514602E53A0FB5333
:10040A00A0EFE4F524F5257D067CFF7FFA7E001235
:10041A0007FD0525E52570020524C3941AE5246421
:10042A0080948040E2E4F514F5157D017C007F019B
:10043A007E001207FD7FE87E0312092D7FE87E0306
:10044A0012092D7FE87E0312092D7FE87E03120927
:10045A002D7FE87E0312092DE4F514F515020381B8
:10094900758920758DFD758BFDD28E759850E4F5EE
:070959008775A890D29922D6
:10083700526561644C65667453656E736F72203DD3
:100847002025642020202020202020202020202058
:100857002020202020202020202020526561645263
:100867006967687453656E736F723D2025640A006B
:0409B9000214000024
:1008EA008E088F091209C2E5092478FFE508340544
:1008FA00FE1209601209C67F147E0012092DE4FE59
:02090A00FF22CA
:1008C7008E0A8F0B1209CAC374DC950BFF7405954A
:1008D7000AFE1209601209CE7F147E0012092DE468
:0308E700FEFF22EF
:0607F7007D01FC7F01FE04
:1007FD008E2A8F2B8C2C8D2D1209C2C37478952BBC
:10080D00FF7405952AFE1209601209C61209CAE580
:10081D002D24DCFFE52C3405FE1209601209CE7F74
:0A082D00147E0012092DE4FEFF22E4
:0409C200439001223B
:0409C6005390FE222A
:0409CA004390022232
:0409CE005390FD2223
:1005D90043A01053A0FB7F5212074B1209987528AC
:1005E900008F297F4C12074B12098D7526008F2722
:1005F9007BFF7A08793785262D85272E85282F8533
:100609002930120070E52764014526700DE529643B
:1006190001452870057DFAFC8012E527640145260D
:10062900700FE529452870097D387CFF7FFAFE8027
:100639001FE52745267011E5296401452870097DC4
:10064900FAFC7F387EFF80087DFA7C007F067EFFFA
:030659001207FD88
:01065C00227B
:100877007F5212074B120998750C008F0D7F4C128F
:10088700074B12098D7BFF7A087937752D008F2E5C
:09089700850C2F850D3002007064
:1007AC001209A3750E008F0F1209AEE50F450E60EE
:1007BC0003EF70080515E51570020514E5156401C5
:1007CC004514700F7DC8FCFFFE1207FD7FF47E01FF
:1007DC0012092DE51564024514700FFDFC7FC8FE4F
:0A07EC001207FD7FF47E0112092DB3
:0107F60022E0
:10065D00E4F510F511EF4E6004ED4C706AE51545AB
:10066D0014706453A0EF43A004F510F5117DFA7CCE
:10067D00007F067EFF1207FD0511E51170020510C2
:10068D00C3941AE5106480948040E20515E5157059
:10069D0002051453A0FB53A0EF7D017C007F017E6A
:1006AD00001207FD7FE87E0312092D7FE87E0312FD
:1006BD00092D7FE87E0312092D7FE87E0312092D97
:0706CD007FE87E0312092DF6
:0106D4002203
:1006D500E4F512F513EF4E6004ED4C7068E5154531
:1006E50014606253A0EF43A004E4F512F5137D06F0
:1006F5007CFF7FFA7E001207FD0513E513700205E6
:1007050012C3941AE5126480948040E2E4F514F56E
:10071500151207F753A0FB53A0EF7FE87E031209DC
:100725002D7FE87E0312092D7FE87E0312092D7FB8
:10073500E87E0312092D7FE87E0312092D0515E5D4
:0507450015700205140F
:01074A00228C
:10090C00EF4E6004ED4C7018E51564024514701040
:10091C0053A0EF53A0FB1207F7E4F514F51580FE76
:01092C0022A8
:10074B00EF644C702BFCFD43B04000000000000038
:10075B0000000000000053B0BF00000000000000CC
:10076B0000000000000DBD00010CED64264C70D79D
:10077B00EF6452702BFCFD43901000000000000052
:10078B000000000000005390EF000000000000008C
:10079B0000000000000DBD00010CED64264C70D76D
:0107AB00222B
:0B098D00E5B030E5037F01227F00226F
:0B099800E58030E1037F01227F002298
:0B09A300E5A030E3037F01227F00226B
:0B09AE00E59030E5037F01227F00226E
:0409BD00021600001E
:100960007C007D0A12046AEF1F70011E144E70F79E
:010970002264
:10092D00AB07AA060BBB00010AEB1B70011A144A98
:0C093D0060097F847E0312096080EE22B6
:0D09800075890175A882758CFF758AA42207
:03000B0002097176
:0F097100C28C758CFF758AA4751600751701323C
:08000300D28CE4F516F517227A
:0300000002054DA9
:0C054D00787FE4F6D8FD75813D0205942E
:10046A00BC000BBE0029EF8DF084FFADF022E4CC76
:10047A00F875F008EF2FFFEE33FEEC33FCEE9DEC3F
:10048A00984005FCEE9DFE0FD5F0E9E4CEFD22ED85
:10049A00F8F5F0EE8420D21CFEADF075F008EF2FCF
:1004AA00FFED33FD4007985006D5F0F222C398FDC0
:0504BA000FD5F0EA225D
:10000E00E539242DF8E6053922782A300702782DB5
:10001E00E475F0011205170204BF2000EB7F2ED20B
:10002E00008018EF540F2490D43440D4FF30040BCA
:10003E00EF24BFB41A0050032461FFE53A600215A5
:10004E003A053DE53D7002053C30070D782AE47512
:10005E00F001120517EF0205050208A07403D2077E
:10006E008003E4C207F5398B2A8A2B892CE4F53AF2
:10007E00F53CF53DE53A60077F2012004980F575A5
:10008E003BFFC201C200C202C203C205C206C208C1
:10009E00120017FF700D3007057F0012005AAF3D9A
:1000AE00AE3C22B4255FC2D5C204120017FF24D085
:1000BE00B40A00501A75F00A783A30D50508B6FF22
:1000CE000106C6A426F620D5047002D20380D924D8
:1000DE00CFB41A00EF5004C2E5D20402025AD20184
:1000EE0080C6D20080C0D20280BCD2D580BAD205E2
:1000FE0080B47F201200492002077401B53A0040F7
:10010E00F112000EFF120049020082D208D20680C0
:10011E009512000EFB12000EFA12000EF94A4B70E9
:10012E0006792B7A037BFF20022EE53A602A7E00A9
:10013E008E827583001204D860060EEE653B70F059
:10014E00C2D5EBC0E0EAC0E0E9C0E0EE1202A1D0F9
:10015E00E0F9D0E0FAD0E0FB1204BFFF60AAEBC0DA
:10016E00E0EAC0E0E9C0E0120049D0E02401F9D095
:10017E00E03400FAD0E0FBE53B0460DCD53BD980EF
:10018E00877BFF7A02799DD202809C79108002795A
:10019E0008C206C2088008D2D5790A8004790AC23C
:1001AE00D5E53B047002F53BE4FAFDFEFF12000EAE
:1001BE00FC7B0820011312000EFD7B1030000A128A
:1001CE00000EFE12000EFF7B20EC3382D592D5502E
:1001DE0013C3E43000069FFFE49EFEE42001039D5E
:1001EE00FDE49CFCE4CBF8C201EC700CCFCECDCC80
:1001FE00E824F8F870F38017C3EF33FFEE33FEED0B
:10020E0033FDEC33FCEB33FB994002FB0FD8E9EBEB
:10021E00300105F8D0E0C448B201C0E00AEC4D4E02
:10022E004F78207B0070C2EAB53B0040BCC0E012A4
:10023E0002A3D0F0D0E0200104C4C0E0C4B201C0DB
:10024E00F0120032D0F0D5F0EB0200821205270139
:10025E001F5301995800F04C00EC42019D4F01A52F
:0F026E004401A54901054301AB55018F46018F9E
:10027D0045018F47034B5000F42D00F82E011B2B29
:10028D0000FC2301192003342A00B4480000011397
:10029D003F3F3F00790AA2D5200314300509B9105C
:1002AD00020404B9080104A2D5200602500104205D
:1002BD0002689202B53A005034C0E07F2030031935
:1002CD007F30A20272067205500F1202FAC202C2EC
:1002DD0006C205C2087F30800F300503E9C0E01269
:1002ED000049300503D0E0F9D0E0B53ACC30051720
:1002FD007F30B9100C1200497F583004077F788089
:10030D0003B908031200493002057F2D0200497F11
:10031D00202008F87F2B2006F322920280CF286E32
:10032D00756C6C2900D20112000E3001F8C20178F3
:10033D003A30D50108F60200B42D50434958120049
:10034D000E2403B405004001E49003469312003AD5
:0D035D00743A12003AD203753A0402019975
:1005590002036AE493A3F8E493A34003F68001F24B
:1005690008DFF48029E493A3F85407240CC8C333A3
:10057900C4540F4420C8834004F456800146F6DF72
:10058900E4800B01020408102040809009B9E47E40
:10059900019360BCA3FF543F30E509541FFEE49367
:1005A900A360010ECF54C025E060A840B8E493A32E
:1005B900FAE493A3F8E493A3C8C582C8CAC583CA59
:1005C900F0A3C8C582C8CAC583CADFE9DEE780BE11
:0109C1000035
:1004BF00BB010689828A83E0225002E722BBFE023B
:0904CF00E32289828A83E493226E
:1004D800BB010CE58229F582E5833AF583E02250D9
:1004E80006E92582F8E622BBFE06E92582F8E22223
:0D04F800E58229F582E5833AF583E493223D
:10050500BB010689828A83F0225002F722BBFE01D5
:02051500F322CF
:10051700FAE6FB0808E6F925F0F618E6CA3AF622E5
:10052700D083D082F8E4937012740193700DA3A363
:1005370093F8740193F5828883E473740293686077
:06054700EFA3A3A380DF77
:1008A000EFB40A07740D1208AB740A309811A899B6
:1008B000B8130CC2983098FDA899C298B811F630B8
:0708C00099FDC299F5992290
:00000001FF
